{
  "_format": "hh-sol-artifact-1",
  "contractName": "YourToken",
  "sourceName": "contracts/Token.sol",
  "abi": [
    {
      "inputs": [
        {
          "internalType": "string",
          "name": "name_",
          "type": "string"
        },
        {
          "internalType": "string",
          "name": "symbol_",
          "type": "string"
        },
        {
          "internalType": "uint256",
          "name": "maxSupply_",
          "type": "uint256"
        }
      ],
      "stateMutability": "nonpayable",
      "type": "constructor"
    },
    {
      "inputs": [],
      "name": "MaxSupplyExceeded",
      "type": "error"
    },
    {
      "inputs": [],
      "name": "OnlyFaucet",
      "type": "error"
    },
    {
      "anonymous": false,
      "inputs": [
        {
          "indexed": true,
          "internalType": "address",
          "name": "owner",
          "type": "address"
        },
        {
          "indexed": true,
          "internalType": "address",
          "name": "spender",
          "type": "address"
        },
        {
          "indexed": false,
          "internalType": "uint256",
          "name": "value",
          "type": "uint256"
        }
      ],
      "name": "Approval",
      "type": "event"
    },
    {
      "anonymous": false,
      "inputs": [
        {
          "indexed": true,
          "internalType": "address",
          "name": "from",
          "type": "address"
        },
        {
          "indexed": true,
          "internalType": "address",
          "name": "to",
          "type": "address"
        },
        {
          "indexed": false,
          "internalType": "uint256",
          "name": "value",
          "type": "uint256"
        }
      ],
      "name": "Transfer",
      "type": "event"
    },
    {
      "inputs": [],
      "name": "MAX_SUPPLY",
      "outputs": [
        {
          "internalType": "uint256",
          "name": "",
          "type": "uint256"
        }
      ],
      "stateMutability": "view",
      "type": "function"
    },
    {
      "inputs": [
        {
          "internalType": "address",
          "name": "owner",
          "type": "address"
        },
        {
          "internalType": "address",
          "name": "spender",
          "type": "address"
        }
      ],
      "name": "allowance",
      "outputs": [
        {
          "internalType": "uint256",
          "name": "",
          "type": "uint256"
        }
      ],
      "stateMutability": "view",
      "type": "function"
    },
    {
      "inputs": [
        {
          "internalType": "address",
          "name": "spender",
          "type": "address"
        },
        {
          "internalType": "uint256",
          "name": "amount",
          "type": "uint256"
        }
      ],
      "name": "approve",
      "outputs": [
        {
          "internalType": "bool",
          "name": "",
          "type": "bool"
        }
      ],
      "stateMutability": "nonpayable",
      "type": "function"
    },
    {
      "inputs": [
        {
          "internalType": "address",
          "name": "account",
          "type": "address"
        }
      ],
      "name": "balanceOf",
      "outputs": [
        {
          "internalType": "uint256",
          "name": "",
          "type": "uint256"
        }
      ],
      "stateMutability": "view",
      "type": "function"
    },
    {
      "inputs": [],
      "name": "decimals",
      "outputs": [
        {
          "internalType": "uint8",
          "name": "",
          "type": "uint8"
        }
      ],
      "stateMutability": "view",
      "type": "function"
    },
    {
      "inputs": [
        {
          "internalType": "address",
          "name": "spender",
          "type": "address"
        },
        {
          "internalType": "uint256",
          "name": "subtractedValue",
          "type": "uint256"
        }
      ],
      "name": "decreaseAllowance",
      "outputs": [
        {
          "internalType": "bool",
          "name": "",
          "type": "bool"
        }
      ],
      "stateMutability": "nonpayable",
      "type": "function"
    },
    {
      "inputs": [],
      "name": "faucet",
      "outputs": [
        {
          "internalType": "address",
          "name": "",
          "type": "address"
        }
      ],
      "stateMutability": "view",
      "type": "function"
    },
    {
      "inputs": [
        {
          "internalType": "address",
          "name": "spender",
          "type": "address"
        },
        {
          "internalType": "uint256",
          "name": "addedValue",
          "type": "uint256"
        }
      ],
      "name": "increaseAllowance",
      "outputs": [
        {
          "internalType": "bool",
          "name": "",
          "type": "bool"
        }
      ],
      "stateMutability": "nonpayable",
      "type": "function"
    },
    {
      "inputs": [
        {
          "internalType": "address",
          "name": "to",
          "type": "address"
        },
        {
          "internalType": "uint256",
          "name": "amount",
          "type": "uint256"
        }
      ],
      "name": "mint",
      "outputs": [],
      "stateMutability": "nonpayable",
      "type": "function"
    },
    {
      "inputs": [],
      "name": "name",
      "outputs": [
        {
          "internalType": "string",
          "name": "",
          "type": "string"
        }
      ],
      "stateMutability": "view",
      "type": "function"
    },
    {
      "inputs": [
        {
          "internalType": "address",
          "name": "faucet_",
          "type": "address"
        }
      ],
      "name": "setFaucet",
      "outputs": [],
      "stateMutability": "nonpayable",
      "type": "function"
    },
    {
      "inputs": [],
      "name": "symbol",
      "outputs": [
        {
          "internalType": "string",
          "name": "",
          "type": "string"
        }
      ],
      "stateMutability": "view",
      "type": "function"
    },
    {
      "inputs": [],
      "name": "totalSupply",
      "outputs": [
        {
          "internalType": "uint256",
          "name": "",
          "type": "uint256"
        }
      ],
      "stateMutability": "view",
      "type": "function"
    },
    {
      "inputs": [
        {
          "internalType": "address",
          "name": "to",
          "type": "address"
        },
        {
          "internalType": "uint256",
          "name": "amount",
          "type": "uint256"
        }
      ],
      "name": "transfer",
      "outputs": [
        {
          "internalType": "bool",
          "name": "",
          "type": "bool"
        }
      ],
      "stateMutability": "nonpayable",
      "type": "function"
    },
    {
      "inputs": [
        {
          "internalType": "address",
          "name": "from",
          "type": "address"
        },
        {
          "internalType": "address",
          "name": "to",
          "type": "address"
        },
        {
          "internalType": "uint256",
          "name": "amount",
          "type": "uint256"
        }
      ],
      "name": "transferFrom",
      "outputs": [
        {
          "internalType": "bool",
          "name": "",
          "type": "bool"
        }
      ],
      "stateMutability": "nonpayable",
      "type": "function"
    }
  ],
  "bytecode": "0x60a06040523480156200001157600080fd5b5060405162001d8a38038062001d8a83398181016040528101906200003791906200023e565b828281600390816200004a919062000519565b5080600490816200005c919062000519565b505050806080818152505050505062000600565b6000604051905090565b600080fd5b600080fd5b600080fd5b600080fd5b6000601f19601f8301169050919050565b7f4e487b7100000000000000000000000000000000000000000000000000000000600052604160045260246000fd5b620000d9826200008e565b810181811067ffffffffffffffff82111715620000fb57620000fa6200009f565b5b80604052505050565b60006200011062000070565b90506200011e8282620000ce565b919050565b600067ffffffffffffffff8211156200014157620001406200009f565b5b6200014c826200008e565b9050602081019050919050565b60005b83811015620001795780820151818401526020810190506200015c565b60008484015250505050565b60006200019c620001968462000123565b62000104565b905082815260208101848484011115620001bb57620001ba62000089565b5b620001c884828562000159565b509392505050565b600082601f830112620001e857620001e762000084565b5b8151620001fa84826020860162000185565b91505092915050565b6000819050919050565b620002188162000203565b81146200022457600080fd5b50565b60008151905062000238816200020d565b92915050565b6000806000606084860312156200025a57620002596200007a565b5b600084015167ffffffffffffffff8111156200027b576200027a6200007f565b5b6200028986828701620001d0565b935050602084015167ffffffffffffffff811115620002ad57620002ac6200007f565b5b620002bb86828701620001d0565b9250506040620002ce8682870162000227565b9150509250925092565b600081519050919050565b7f4e487b7100000000000000000000000000000000000000000000000000000000600052602260045260246000fd5b600060028204905060018216806200032b57607f821691505b602082108103620003415762000340620002e3565b5b50919050565b60008190508160005260206000209050919050565b60006020601f8301049050919050565b600082821b905092915050565b600060088302620003ab7fffffffffffffffffffffffffffffffffffffffffffffffffffffffffffffffff826200036c565b620003b786836200036c565b95508019841693508086168417925050509392505050565b6000819050919050565b6000620003fa620003f4620003ee8462000203565b620003cf565b62000203565b9050919050565b6000819050919050565b6200041683620003d9565b6200042e620004258262000401565b84845462000379565b825550505050565b600090565b6200044562000436565b620004528184846200040b565b505050565b5b818110156200047a576200046e6000826200043b565b60018101905062000458565b5050565b601f821115620004c957620004938162000347565b6200049e846200035c565b81016020851015620004ae578190505b620004c6620004bd856200035c565b83018262000457565b50505b505050565b600082821c905092915050565b6000620004ee60001984600802620004ce565b1980831691505092915050565b6000620005098383620004db565b9150826002028217905092915050565b6200052482620002d8565b67ffffffffffffffff81111562000540576200053f6200009f565b5b6200054c825462000312565b620005598282856200047e565b600060209050601f8311600181146200059157600084156200057c578287015190505b620005888582620004fb565b865550620005f8565b601f198416620005a18662000347565b60005b82811015620005cb57848901518255600182019150602085019450602081019050620005a4565b86831015620005eb5784890151620005e7601f891682620004db565b8355505b6001600288020188555050505b505050505050565b608051611767620006236000396000818161042f015261051101526117676000f3fe608060405234801561001057600080fd5b50600436106100f55760003560e01c806340c10f1911610097578063a9059cbb11610066578063a9059cbb1461029c578063d8b31c77146102cc578063dd62ed3e146102e8578063de5f72fd14610318576100f5565b806340c10f191461020257806370a082311461021e57806395d89b411461024e578063a457c2d71461026c576100f5565b806323b872dd116100d357806323b872dd14610166578063313ce5671461019657806332cb6b0c146101b457806339509351146101d2576100f5565b806306fdde03146100fa578063095ea7b31461011857806318160ddd14610148575b600080fd5b610102610336565b60405161010f9190610f42565b60405180910390f35b610132600480360381019061012d9190610ffd565b6103c8565b60405161013f9190611058565b60405180910390f35b6101506103eb565b60405161015d9190611082565b60405180910390f35b610180600480360381019061017b919061109d565b6103f5565b60405161018d9190611058565b60405180910390f35b61019e610424565b6040516101ab919061110c565b60405180910390f35b6101bc61042d565b6040516101c99190611082565b60405180910390f35b6101ec60048036038101906101e79190610ffd565b610451565b6040516101f99190611058565b60405180910390f35b61021c60048036038101906102179190610ffd565b610488565b005b61023860048036038101906102339190611127565b610589565b6040516102459190611082565b60405180910390f35b6102566105d1565b6040516102639190610f42565b60405180910390f35b61028660048036038101906102819190610ffd565b610663565b6040516102939190611058565b60405180910390f35b6102b660048036038101906102b19190610ffd565b6106da565b6040516102c39190611058565b60405180910390f35b6102e660048036038101906102e19190611127565b6106fd565b005b61030260048036038101906102fd9190611154565b6107d2565b60405161030f9190611082565b60405180910390f35b610320610859565b60405161032d91906111a3565b60405180910390f35b606060038054610345906111ed565b80601f0160208091040260200160405190810160405280929190818152602001828054610371906111ed565b80156103be5780601f10610393576101008083540402835291602001916103be565b820191906000526020600020905b8154815290600101906020018083116103a157829003601f168201915b5050505050905090565b6000806103d361087f565b90506103e0818585610887565b600191505092915050565b6000600254905090565b60008061040061087f565b905061040d858285610a50565b610418858585610adc565b60019150509392505050565b60006012905090565b7f000000000000000000000000000000000000000000000000000000000000000081565b60008061045c61087f565b905061047d81858561046e85896107d2565b610478919061124d565b610887565b600191505092915050565b600560009054906101000a900473ffffffffffffffffffffffffffffffffffffffff1673ffffffffffffffffffffffffffffffffffffffff163373ffffffffffffffffffffffffffffffffffffffff161461050f576040517f9c51867b00000000000000000000000000000000000000000000000000000000815260040160405180910390fd5b7f0000000000000000000000000000000000000000000000000000000000000000816105396103eb565b610543919061124d565b111561057b576040517f8a164f6300000000000000000000000000000000000000000000000000000000815260040160405180910390fd5b6105858282610d52565b5050565b60008060008373ffffffffffffffffffffffffffffffffffffffff1673ffffffffffffffffffffffffffffffffffffffff168152602001908152602001600020549050919050565b6060600480546105e0906111ed565b80601f016020809104026020016040519081016040528092919081815260200182805461060c906111ed565b80156106595780601f1061062e57610100808354040283529160200191610659565b820191906000526020600020905b81548152906001019060200180831161063c57829003601f168201915b5050505050905090565b60008061066e61087f565b9050600061067c82866107d2565b9050838110156106c1576040517f08c379a00000000000000000000000000000000000000000000000000000000081526004016106b8906112f3565b60405180910390fd5b6106ce8286868403610887565b60019250505092915050565b6000806106e561087f565b90506106f2818585610adc565b600191505092915050565b600073ffffffffffffffffffffffffffffffffffffffff16600560009054906101000a900473ffffffffffffffffffffffffffffffffffffffff1673ffffffffffffffffffffffffffffffffffffffff161461078e576040517f08c379a00000000000000000000000000000000000000000000000000000000081526004016107859061135f565b60405180910390fd5b80600560006101000a81548173ffffffffffffffffffffffffffffffffffffffff021916908373ffffffffffffffffffffffffffffffffffffffff16021790555050565b6000600160008473ffffffffffffffffffffffffffffffffffffffff1673ffffffffffffffffffffffffffffffffffffffff16815260200190815260200160002060008373ffffffffffffffffffffffffffffffffffffffff1673ffffffffffffffffffffffffffffffffffffffff16815260200190815260200160002054905092915050565b600560009054906101000a900473ffffffffffffffffffffffffffffffffffffffff1681565b600033905090565b600073ffffffffffffffffffffffffffffffffffffffff168373ffffffffffffffffffffffffffffffffffffffff16036108f6576040517f08c379a00000000000000000000000000000000000000000000000000000000081526004016108ed906113f1565b60405180910390fd5b600073ffffffffffffffffffffffffffffffffffffffff168273ffffffffffffffffffffffffffffffffffffffff1603610965576040517f08c379a000000000000000000000000000000000000000000000000000000000815260040161095c90611483565b60405180910390fd5b80600160008573ffffffffffffffffffffffffffffffffffffffff1673ffffffffffffffffffffffffffffffffffffffff16815260200190815260200160002060008473ffffffffffffffffffffffffffffffffffffffff1673ffffffffffffffffffffffffffffffffffffffff168152602001908152602001600020819055508173ffffffffffffffffffffffffffffffffffffffff168373ffffffffffffffffffffffffffffffffffffffff167f8c5be1e5ebec7d5bd14f71427d1e84f3dd0314c0f7b2291e5b200ac8c7c3b92583604051610a439190611082565b60405180910390a3505050565b6000610a5c84846107d2565b90507fffffffffffffffffffffffffffffffffffffffffffffffffffffffffffffffff8114610ad65781811015610ac8576040517f08c379a0000000000000000000000000000000000000000000000000000000008152600401610abf906114ef565b60405180910390fd5b610ad58484848403610887565b5b50505050565b600073ffffffffffffffffffffffffffffffffffffffff168373ffffffffffffffffffffffffffffffffffffffff1603610b4b576040517f08c379a0000000000000000000000000000000000000000000000000000000008152600401610b4290611581565b60405180910390fd5b600073ffffffffffffffffffffffffffffffffffffffff168273ffffffffffffffffffffffffffffffffffffffff1603610bba576040517f08c379a0000000000000000000000000000000000000000000000000000000008152600401610bb190611613565b60405180910390fd5b610bc5838383610ea8565b60008060008573ffffffffffffffffffffffffffffffffffffffff1673ffffffffffffffffffffffffffffffffffffffff16815260200190815260200160002054905081811015610c4b576040517f08c379a0000000000000000000000000000000000000000000000000000000008152600401610c42906116a5565b60405180910390fd5b8181036000808673ffffffffffffffffffffffffffffffffffffffff1673ffffffffffffffffffffffffffffffffffffffff16815260200190815260200160002081905550816000808573ffffffffffffffffffffffffffffffffffffffff1673ffffffffffffffffffffffffffffffffffffffff168152602001908152602001600020600082825401925050819055508273ffffffffffffffffffffffffffffffffffffffff168473ffffffffffffffffffffffffffffffffffffffff167fddf252ad1be2c89b69c2b068fc378daa952ba7f163c4a11628f55a4df523b3ef84604051610d399190611082565b60405180910390a3610d4c848484610ead565b50505050565b600073ffffffffffffffffffffffffffffffffffffffff168273ffffffffffffffffffffffffffffffffffffffff1603610dc1576040517f08c379a0000000000000000000000000000000000000000000000000000000008152600401610db890611711565b60405180910390fd5b610dcd60008383610ea8565b8060026000828254610ddf919061124d565b92505081905550806000808473ffffffffffffffffffffffffffffffffffffffff1673ffffffffffffffffffffffffffffffffffffffff168152602001908152602001600020600082825401925050819055508173ffffffffffffffffffffffffffffffffffffffff16600073ffffffffffffffffffffffffffffffffffffffff167fddf252ad1be2c89b69c2b068fc378daa952ba7f163c4a11628f55a4df523b3ef83604051610e909190611082565b60405180910390a3610ea460008383610ead565b5050565b505050565b505050565b600081519050919050565b600082825260208201905092915050565b60005b83811015610eec578082015181840152602081019050610ed1565b60008484015250505050565b6000601f19601f8301169050919050565b6000610f1482610eb2565b610f1e8185610ebd565b9350610f2e818560208601610ece565b610f3781610ef8565b840191505092915050565b60006020820190508181036000830152610f5c8184610f09565b905092915050565b600080fd5b600073ffffffffffffffffffffffffffffffffffffffff82169050919050565b6000610f9482610f69565b9050919050565b610fa481610f89565b8114610faf57600080fd5b50565b600081359050610fc181610f9b565b92915050565b6000819050919050565b610fda81610fc7565b8114610fe557600080fd5b50565b600081359050610ff781610fd1565b92915050565b6000806040838503121561101457611013610f64565b5b600061102285828601610fb2565b925050602061103385828601610fe8565b9150509250929050565b60008115159050919050565b6110528161103d565b82525050565b600060208201905061106d6000830184611049565b92915050565b61107c81610fc7565b82525050565b60006020820190506110976000830184611073565b92915050565b6000806000606084860312156110b6576110b5610f64565b5b60006110c486828701610fb2565b93505060206110d586828701610fb2565b92505060406110e686828701610fe8565b9150509250925092565b600060ff82169050919050565b611106816110f0565b82525050565b600060208201905061112160008301846110fd565b92915050565b60006020828403121561113d5761113c610f64565b5b600061114b84828501610fb2565b91505092915050565b6000806040838503121561116b5761116a610f64565b5b600061117985828601610fb2565b925050602061118a85828601610fb2565b9150509250929050565b61119d81610f89565b82525050565b60006020820190506111b86000830184611194565b92915050565b7f4e487b7100000000000000000000000000000000000000000000000000000000600052602260045260246000fd5b6000600282049050600182168061120557607f821691505b602082108103611218576112176111be565b5b50919050565b7f4e487b7100000000000000000000000000000000000000000000000000000000600052601160045260246000fd5b600061125882610fc7565b915061126383610fc7565b925082820190508082111561127b5761127a61121e565b5b92915050565b7f45524332303a2064656372656173656420616c6c6f77616e63652062656c6f7760008201527f207a65726f000000000000000000000000000000000000000000000000000000602082015250565b60006112dd602583610ebd565b91506112e882611281565b604082019050919050565b6000602082019050818103600083015261130c816112d0565b9050919050565b7f46617563657420616c7265616479207365740000000000000000000000000000600082015250565b6000611349601283610ebd565b915061135482611313565b602082019050919050565b600060208201905081810360008301526113788161133c565b9050919050565b7f45524332303a20617070726f76652066726f6d20746865207a65726f2061646460008201527f7265737300000000000000000000000000000000000000000000000000000000602082015250565b60006113db602483610ebd565b91506113e68261137f565b604082019050919050565b6000602082019050818103600083015261140a816113ce565b9050919050565b7f45524332303a20617070726f766520746f20746865207a65726f20616464726560008201527f7373000000000000000000000000000000000000000000000000000000000000602082015250565b600061146d602283610ebd565b915061147882611411565b604082019050919050565b6000602082019050818103600083015261149c81611460565b9050919050565b7f45524332303a20696e73756666696369656e7420616c6c6f77616e6365000000600082015250565b60006114d9601d83610ebd565b91506114e4826114a3565b602082019050919050565b60006020820190508181036000830152611508816114cc565b9050919050565b7f45524332303a207472616e736665722066726f6d20746865207a65726f20616460008201527f6472657373000000000000000000000000000000000000000000000000000000602082015250565b600061156b602583610ebd565b91506115768261150f565b604082019050919050565b6000602082019050818103600083015261159a8161155e565b9050919050565b7f45524332303a207472616e7366657220746f20746865207a65726f206164647260008201527f6573730000000000000000000000000000000000000000000000000000000000602082015250565b60006115fd602383610ebd565b9150611608826115a1565b604082019050919050565b6000602082019050818103600083015261162c816115f0565b9050919050565b7f45524332303a207472616e7366657220616d6f756e742065786365656473206260008201527f616c616e63650000000000000000000000000000000000000000000000000000602082015250565b600061168f602683610ebd565b915061169a82611633565b604082019050919050565b600060208201905081810360008301526116be81611682565b9050919050565b7f45524332303a206d696e7420746f20746865207a65726f206164647265737300600082015250565b60006116fb601f83610ebd565b9150611706826116c5565b602082019050919050565b6000602082019050818103600083015261172a816116ee565b905091905056fea26469706673582212209ca55cf593eb9b5b45c7e32a54b4411f53bcd3551d2efa5834453a9bd3847dd664736f6c63430008140033",
  "linkReferences": {},
  "deployedLinkReferences": {}
}